{
  "_format": "hh-sol-artifact-1",
  "contractName": "Domains",
  "sourceName": "contracts/Domains.sol",
  "abi": [
    {
      "inputs": [
        {
          "internalType": "string",
          "name": "_tld",
          "type": "string"
        }
      ],
      "stateMutability": "payable",
      "type": "constructor"
    },
    {
      "inputs": [],
      "name": "AlreadyRegistered",
      "type": "error"
    },
    {
      "inputs": [
        {
          "internalType": "string",
          "name": "name",
          "type": "string"
        }
      ],
      "name": "InvalidName",
      "type": "error"
    },
    {
      "inputs": [],
      "name": "Unauthorized",
      "type": "error"
    },
    {
      "anonymous": false,
      "inputs": [
        {
          "indexed": true,
          "internalType": "address",
          "name": "owner",
          "type": "address"
        },
        {
          "indexed": true,
          "internalType": "address",
          "name": "approved",
          "type": "address"
        },
        {
          "indexed": true,
          "internalType": "uint256",
          "name": "tokenId",
          "type": "uint256"
        }
      ],
      "name": "Approval",
      "type": "event"
    },
    {
      "anonymous": false,
      "inputs": [
        {
          "indexed": true,
          "internalType": "address",
          "name": "owner",
          "type": "address"
        },
        {
          "indexed": true,
          "internalType": "address",
          "name": "operator",
          "type": "address"
        },
        {
          "indexed": false,
          "internalType": "bool",
          "name": "approved",
          "type": "bool"
        }
      ],
      "name": "ApprovalForAll",
      "type": "event"
    },
    {
      "anonymous": false,
      "inputs": [
        {
          "indexed": false,
          "internalType": "string",
          "name": "message",
          "type": "string"
        },
        {
          "indexed": false,
          "internalType": "uint256",
          "name": "timestamp",
          "type": "uint256"
        },
        {
          "indexed": false,
          "internalType": "bool",
          "name": "hide",
          "type": "bool"
        },
        {
          "indexed": false,
          "internalType": "uint256",
          "name": "id",
          "type": "uint256"
        }
      ],
      "name": "EditedPost",
      "type": "event"
    },
    {
      "anonymous": false,
      "inputs": [
        {
          "indexed": false,
          "internalType": "bool",
          "name": "hide",
          "type": "bool"
        },
        {
          "indexed": false,
          "internalType": "uint256",
          "name": "id",
          "type": "uint256"
        }
      ],
      "name": "HiddenPost",
      "type": "event"
    },
    {
      "anonymous": false,
      "inputs": [
        {
          "indexed": true,
          "internalType": "address",
          "name": "from",
          "type": "address"
        },
        {
          "indexed": false,
          "internalType": "string",
          "name": "message",
          "type": "string"
        },
        {
          "indexed": false,
          "internalType": "uint256",
          "name": "timestamp",
          "type": "uint256"
        },
        {
          "indexed": false,
          "internalType": "bool",
          "name": "hide",
          "type": "bool"
        },
        {
          "indexed": false,
          "internalType": "uint256",
          "name": "totalBookmarks",
          "type": "uint256"
        }
      ],
      "name": "NewPost",
      "type": "event"
    },
    {
      "anonymous": false,
      "inputs": [
        {
          "indexed": true,
          "internalType": "address",
          "name": "from",
          "type": "address"
        },
        {
          "indexed": true,
          "internalType": "address",
          "name": "to",
          "type": "address"
        },
        {
          "indexed": true,
          "internalType": "uint256",
          "name": "tokenId",
          "type": "uint256"
        }
      ],
      "name": "Transfer",
      "type": "event"
    },
    {
      "inputs": [
        {
          "internalType": "string",
          "name": "name",
          "type": "string"
        },
        {
          "internalType": "string",
          "name": "_message",
          "type": "string"
        },
        {
          "internalType": "bool",
          "name": "_hide",
          "type": "bool"
        },
        {
          "internalType": "uint256",
          "name": "fav",
          "type": "uint256"
        }
      ],
      "name": "addPost",
      "outputs": [],
      "stateMutability": "nonpayable",
      "type": "function"
    },
    {
      "inputs": [
        {
          "internalType": "address",
          "name": "to",
          "type": "address"
        },
        {
          "internalType": "uint256",
          "name": "tokenId",
          "type": "uint256"
        }
      ],
      "name": "approve",
      "outputs": [],
      "stateMutability": "nonpayable",
      "type": "function"
    },
    {
      "inputs": [
        {
          "internalType": "string",
          "name": "",
          "type": "string"
        }
      ],
      "name": "avatars",
      "outputs": [
        {
          "internalType": "string",
          "name": "",
          "type": "string"
        }
      ],
      "stateMutability": "view",
      "type": "function"
    },
    {
      "inputs": [
        {
          "internalType": "address",
          "name": "owner",
          "type": "address"
        }
      ],
      "name": "balanceOf",
      "outputs": [
        {
          "internalType": "uint256",
          "name": "",
          "type": "uint256"
        }
      ],
      "stateMutability": "view",
      "type": "function"
    },
    {
      "inputs": [
        {
          "internalType": "string",
          "name": "",
          "type": "string"
        }
      ],
      "name": "bioRecords",
      "outputs": [
        {
          "internalType": "string",
          "name": "",
          "type": "string"
        }
      ],
      "stateMutability": "view",
      "type": "function"
    },
    {
      "inputs": [
        {
          "internalType": "string",
          "name": "_message",
          "type": "string"
        },
        {
          "internalType": "bool",
          "name": "_hide",
          "type": "bool"
        },
        {
          "internalType": "uint256",
          "name": "_id",
          "type": "uint256"
        },
        {
          "internalType": "uint256",
          "name": "ind",
          "type": "uint256"
        }
      ],
      "name": "bookmark",
      "outputs": [],
      "stateMutability": "nonpayable",
      "type": "function"
    },
    {
      "inputs": [
        {
          "internalType": "string",
          "name": "",
          "type": "string"
        }
      ],
      "name": "domains",
      "outputs": [
        {
          "internalType": "address",
          "name": "",
          "type": "address"
        }
      ],
      "stateMutability": "view",
      "type": "function"
    },
    {
      "inputs": [
        {
          "internalType": "string",
          "name": "_message",
          "type": "string"
        },
        {
          "internalType": "bool",
          "name": "_hide",
          "type": "bool"
        },
        {
          "internalType": "uint256",
          "name": "_id",
          "type": "uint256"
        }
      ],
      "name": "editPost",
      "outputs": [],
      "stateMutability": "nonpayable",
      "type": "function"
    },
    {
      "inputs": [
        {
          "internalType": "string",
          "name": "",
          "type": "string"
        }
      ],
      "name": "emailRecords",
      "outputs": [
        {
          "internalType": "string",
          "name": "",
          "type": "string"
        }
      ],
      "stateMutability": "view",
      "type": "function"
    },
    {
      "inputs": [
        {
          "internalType": "string",
          "name": "name",
          "type": "string"
        }
      ],
      "name": "getAddress",
      "outputs": [
        {
          "internalType": "address",
          "name": "",
          "type": "address"
        }
      ],
      "stateMutability": "view",
      "type": "function"
    },
    {
      "inputs": [],
      "name": "getAllNames",
      "outputs": [
        {
          "internalType": "string[]",
          "name": "",
          "type": "string[]"
        }
      ],
      "stateMutability": "view",
      "type": "function"
    },
    {
      "inputs": [
        {
          "internalType": "uint256",
          "name": "tokenId",
          "type": "uint256"
        }
      ],
      "name": "getApproved",
      "outputs": [
        {
          "internalType": "address",
          "name": "",
          "type": "address"
        }
      ],
      "stateMutability": "view",
      "type": "function"
    },
    {
      "inputs": [],
      "name": "getBookmarks",
      "outputs": [
        {
          "components": [
            {
              "internalType": "address",
              "name": "user",
              "type": "address"
            },
            {
              "internalType": "string",
              "name": "message",
              "type": "string"
            },
            {
              "internalType": "bool",
              "name": "hide",
              "type": "bool"
            },
            {
              "internalType": "uint256",
              "name": "postId",
              "type": "uint256"
            }
          ],
          "internalType": "struct Domains.Bookmark[]",
          "name": "",
          "type": "tuple[]"
        }
      ],
      "stateMutability": "view",
      "type": "function"
    },
    {
      "inputs": [],
      "name": "getPosts",
      "outputs": [
        {
          "components": [
            {
              "internalType": "address",
              "name": "user",
              "type": "address"
            },
            {
              "internalType": "string",
              "name": "message",
              "type": "string"
            },
            {
              "internalType": "uint256",
              "name": "timestamp",
              "type": "uint256"
            },
            {
              "internalType": "bool",
              "name": "hide",
              "type": "bool"
            },
            {
              "internalType": "uint256",
              "name": "totalBookmarks",
              "type": "uint256"
            }
          ],
          "internalType": "struct Domains.Post[]",
          "name": "",
          "type": "tuple[]"
        }
      ],
      "stateMutability": "view",
      "type": "function"
    },
    {
      "inputs": [
        {
          "internalType": "string",
          "name": "name",
          "type": "string"
        }
      ],
      "name": "getUserTotalPosts",
      "outputs": [
        {
          "internalType": "uint256",
          "name": "",
          "type": "uint256"
        }
      ],
      "stateMutability": "view",
      "type": "function"
    },
    {
      "inputs": [
        {
          "internalType": "bool",
          "name": "_hide",
          "type": "bool"
        },
        {
          "internalType": "uint256",
          "name": "_id",
          "type": "uint256"
        }
      ],
      "name": "hidePost",
      "outputs": [],
      "stateMutability": "nonpayable",
      "type": "function"
    },
    {
      "inputs": [
        {
          "internalType": "address",
          "name": "owner",
          "type": "address"
        },
        {
          "internalType": "address",
          "name": "operator",
          "type": "address"
        }
      ],
      "name": "isApprovedForAll",
      "outputs": [
        {
          "internalType": "bool",
          "name": "",
          "type": "bool"
        }
      ],
      "stateMutability": "view",
      "type": "function"
    },
    {
      "inputs": [],
      "name": "name",
      "outputs": [
        {
          "internalType": "string",
          "name": "",
          "type": "string"
        }
      ],
      "stateMutability": "view",
      "type": "function"
    },
    {
      "inputs": [
        {
          "internalType": "uint256",
          "name": "",
          "type": "uint256"
        }
      ],
      "name": "names",
      "outputs": [
        {
          "internalType": "string",
          "name": "",
          "type": "string"
        }
      ],
      "stateMutability": "view",
      "type": "function"
    },
    {
      "inputs": [],
      "name": "owner",
      "outputs": [
        {
          "internalType": "address payable",
          "name": "",
          "type": "address"
        }
      ],
      "stateMutability": "view",
      "type": "function"
    },
    {
      "inputs": [
        {
          "internalType": "uint256",
          "name": "tokenId",
          "type": "uint256"
        }
      ],
      "name": "ownerOf",
      "outputs": [
        {
          "internalType": "address",
          "name": "",
          "type": "address"
        }
      ],
      "stateMutability": "view",
      "type": "function"
    },
    {
      "inputs": [
        {
          "internalType": "string",
          "name": "name",
          "type": "string"
        }
      ],
      "name": "price",
      "outputs": [
        {
          "internalType": "uint256",
          "name": "",
          "type": "uint256"
        }
      ],
      "stateMutability": "pure",
      "type": "function"
    },
    {
      "inputs": [
        {
          "internalType": "string",
          "name": "name",
          "type": "string"
        }
      ],
      "name": "register",
      "outputs": [],
      "stateMutability": "payable",
      "type": "function"
    },
    {
      "inputs": [
        {
          "internalType": "address",
          "name": "from",
          "type": "address"
        },
        {
          "internalType": "address",
          "name": "to",
          "type": "address"
        },
        {
          "internalType": "uint256",
          "name": "tokenId",
          "type": "uint256"
        }
      ],
      "name": "safeTransferFrom",
      "outputs": [],
      "stateMutability": "nonpayable",
      "type": "function"
    },
    {
      "inputs": [
        {
          "internalType": "address",
          "name": "from",
          "type": "address"
        },
        {
          "internalType": "address",
          "name": "to",
          "type": "address"
        },
        {
          "internalType": "uint256",
          "name": "tokenId",
          "type": "uint256"
        },
        {
          "internalType": "bytes",
          "name": "_data",
          "type": "bytes"
        }
      ],
      "name": "safeTransferFrom",
      "outputs": [],
      "stateMutability": "nonpayable",
      "type": "function"
    },
    {
      "inputs": [
        {
          "internalType": "address",
          "name": "operator",
          "type": "address"
        },
        {
          "internalType": "bool",
          "name": "approved",
          "type": "bool"
        }
      ],
      "name": "setApprovalForAll",
      "outputs": [],
      "stateMutability": "nonpayable",
      "type": "function"
    },
    {
      "inputs": [
        {
          "internalType": "string",
          "name": "name",
          "type": "string"
        },
        {
          "internalType": "string",
          "name": "bio",
          "type": "string"
        },
        {
          "internalType": "string",
          "name": "email",
          "type": "string"
        },
        {
          "internalType": "string",
          "name": "avatar",
          "type": "string"
        }
      ],
      "name": "setRecord",
      "outputs": [],
      "stateMutability": "nonpayable",
      "type": "function"
    },
    {
      "inputs": [
        {
          "internalType": "bytes4",
          "name": "interfaceId",
          "type": "bytes4"
        }
      ],
      "name": "supportsInterface",
      "outputs": [
        {
          "internalType": "bool",
          "name": "",
          "type": "bool"
        }
      ],
      "stateMutability": "view",
      "type": "function"
    },
    {
      "inputs": [],
      "name": "symbol",
      "outputs": [
        {
          "internalType": "string",
          "name": "",
          "type": "string"
        }
      ],
      "stateMutability": "view",
      "type": "function"
    },
    {
      "inputs": [],
      "name": "tld",
      "outputs": [
        {
          "internalType": "string",
          "name": "",
          "type": "string"
        }
      ],
      "stateMutability": "view",
      "type": "function"
    },
    {
      "inputs": [
        {
          "internalType": "uint256",
          "name": "tokenId",
          "type": "uint256"
        }
      ],
      "name": "tokenURI",
      "outputs": [
        {
          "internalType": "string",
          "name": "",
          "type": "string"
        }
      ],
      "stateMutability": "view",
      "type": "function"
    },
    {
      "inputs": [
        {
          "internalType": "string",
          "name": "",
          "type": "string"
        }
      ],
      "name": "totalPosts",
      "outputs": [
        {
          "internalType": "uint256",
          "name": "",
          "type": "uint256"
        }
      ],
      "stateMutability": "view",
      "type": "function"
    },
    {
      "inputs": [
        {
          "internalType": "address",
          "name": "from",
          "type": "address"
        },
        {
          "internalType": "address",
          "name": "to",
          "type": "address"
        },
        {
          "internalType": "uint256",
          "name": "tokenId",
          "type": "uint256"
        }
      ],
      "name": "transferFrom",
      "outputs": [],
      "stateMutability": "nonpayable",
      "type": "function"
    },
    {
      "inputs": [
        {
          "internalType": "string",
          "name": "name",
          "type": "string"
        }
      ],
      "name": "valid",
      "outputs": [
        {
          "internalType": "bool",
          "name": "",
          "type": "bool"
        }
      ],
      "stateMutability": "pure",
      "type": "function"
    }
  ],
  "bytecode": "0x6080604052604051806108a0016040528061086b81526020016200666661086b9139600a908051906020019062000038929190620002c8565b506040518060400160405280600d81526020017f3c2f746578743e3c2f7376673e00000000000000000000000000000000000000815250600b908051906020019062000086929190620002c8565b5060405162006ed138038062006ed18339818101604052810190620000ac919062000515565b6040518060400160405280601781526020017f6275696c6473706163652057616c6c206f662046616d650000000000000000008152506040518060400160405280600581526020017f4754464f4c000000000000000000000000000000000000000000000000000000815250816000908051906020019062000130929190620002c8565b50806001908051906020019062000149929190620002c8565b50505033601460006101000a81548173ffffffffffffffffffffffffffffffffffffffff021916908373ffffffffffffffffffffffffffffffffffffffff1602179055508060089080519060200190620001a5929190620002c8565b50620001f26040518060400160405280601881526020017f2573206e616d652073657276696365206465706c6f796564000000000000000081525082620001f960201b620027fd1760201c565b5062000663565b6200029b828260405160240162000212929190620005c3565b6040516020818303038152906040527f4b5c4277000000000000000000000000000000000000000000000000000000007bffffffffffffffffffffffffffffffffffffffffffffffffffffffff19166020820180517bffffffffffffffffffffffffffffffffffffffffffffffffffffffff83818316178352505050506200029f60201b60201c565b5050565b60008151905060006a636f6e736f6c652e6c6f679050602083016000808483855afa5050505050565b828054620002d6906200062d565b90600052602060002090601f016020900481019282620002fa576000855562000346565b82601f106200031557805160ff191683800117855562000346565b8280016001018555821562000346579182015b828111156200034557825182559160200191906001019062000328565b5b50905062000355919062000359565b5090565b5b80821115620003745760008160009055506001016200035a565b5090565b6000604051905090565b600080fd5b600080fd5b600080fd5b600080fd5b6000601f19601f8301169050919050565b7f4e487b7100000000000000000000000000000000000000000000000000000000600052604160045260246000fd5b620003e18262000396565b810181811067ffffffffffffffff82111715620004035762000402620003a7565b5b80604052505050565b60006200041862000378565b9050620004268282620003d6565b919050565b600067ffffffffffffffff821115620004495762000448620003a7565b5b620004548262000396565b9050602081019050919050565b60005b838110156200048157808201518184015260208101905062000464565b8381111562000491576000848401525b50505050565b6000620004ae620004a8846200042b565b6200040c565b905082815260208101848484011115620004cd57620004cc62000391565b5b620004da84828562000461565b509392505050565b600082601f830112620004fa57620004f96200038c565b5b81516200050c84826020860162000497565b91505092915050565b6000602082840312156200052e576200052d62000382565b5b600082015167ffffffffffffffff8111156200054f576200054e62000387565b5b6200055d84828501620004e2565b91505092915050565b600081519050919050565b600082825260208201905092915050565b60006200058f8262000566565b6200059b818562000571565b9350620005ad81856020860162000461565b620005b88162000396565b840191505092915050565b60006040820190508181036000830152620005df818562000582565b90508181036020830152620005f5818462000582565b90509392505050565b7f4e487b7100000000000000000000000000000000000000000000000000000000600052602260045260246000fd5b600060028204905060018216806200064657607f821691505b602082108114156200065d576200065c620005fe565b5b50919050565b615ff380620006736000396000f3fe6080604052600436106101f95760003560e01c80638da5cb5b1161010d578063c87b56dd116100a0578063e985e9c51161006f578063e985e9c5146107c7578063f2c298be14610804578063fa75313b14610820578063fb825e5f14610849578063fe2c619814610874576101f9565b8063c87b56dd146106e7578063cca49b0014610724578063d460cdaf14610761578063e19303f21461078a576101f9565b8063b4da61f0116100dc578063b4da61f01461061b578063b75f3d6514610644578063b88d4fde14610681578063bf40fac1146106aa576101f9565b80638da5cb5b1461055f57806395d89b411461058a5780639791c097146105b5578063a22cb465146105f2576101f9565b806341f3004a1161019057806354beb1c91161015f57806354beb1c9146104565780636352211e1461047f57806370a08231146104bc57806376b5566e146104f95780638c414ced14610536576101f9565b806341f3004a1461039a57806342842e0e146103c557806345d9bd15146103ee5780634622ab0314610419576101f9565b806323b872dd116101cc57806323b872dd146102cc57806326449235146102f55780632d551432146103325780633d9647fe1461035d576101f9565b806301ffc9a7146101fe57806306fdde031461023b578063081812fc14610266578063095ea7b3146102a3575b600080fd5b34801561020a57600080fd5b5061022560048036038101906102209190613e1d565b6108b1565b6040516102329190613e65565b60405180910390f35b34801561024757600080fd5b50610250610993565b60405161025d9190613f19565b60405180910390f35b34801561027257600080fd5b5061028d60048036038101906102889190613f71565b610a25565b60405161029a9190613fdf565b60405180910390f35b3480156102af57600080fd5b506102ca60048036038101906102c59190614026565b610aaa565b005b3480156102d857600080fd5b506102f360048036038101906102ee9190614066565b610bc2565b005b34801561030157600080fd5b5061031c600480360381019061031791906141ee565b610c22565b6040516103299190613fdf565b60405180910390f35b34801561033e57600080fd5b50610347610c6b565b6040516103549190613f19565b60405180910390f35b34801561036957600080fd5b50610384600480360381019061037f91906141ee565b610cf9565b6040516103919190613f19565b60405180910390f35b3480156103a657600080fd5b506103af610daf565b6040516103bc91906143e6565b60405180910390f35b3480156103d157600080fd5b506103ec60048036038101906103e79190614066565b610f25565b005b3480156103fa57600080fd5b50610403610f45565b604051610410919061452d565b60405180910390f35b34801561042557600080fd5b50610440600480360381019061043b9190613f71565b6110b1565b60405161044d9190613f19565b60405180910390f35b34801561046257600080fd5b5061047d600480360381019061047891906145db565b611151565b005b34801561048b57600080fd5b506104a660048036038101906104a19190613f71565b61141e565b6040516104b39190613fdf565b60405180910390f35b3480156104c857600080fd5b506104e360048036038101906104de919061467f565b6114d0565b6040516104f091906146bb565b60405180910390f35b34801561050557600080fd5b50610520600480360381019061051b91906141ee565b611588565b60405161052d91906146bb565b60405180910390f35b34801561054257600080fd5b5061055d600480360381019061055891906146d6565b6115b6565b005b34801561056b57600080fd5b506105746116ad565b6040516105819190614737565b60405180910390f35b34801561059657600080fd5b5061059f6116d3565b6040516105ac9190613f19565b60405180910390f35b3480156105c157600080fd5b506105dc60048036038101906105d79190614752565b611765565b6040516105e99190613e65565b60405180910390f35b3480156105fe57600080fd5b506106196004803603810190610614919061479f565b611819565b005b34801561062757600080fd5b50610642600480360381019061063d91906147df565b61182f565b005b34801561065057600080fd5b5061066b60048036038101906106669190614752565b6119f3565b60405161067891906146bb565b60405180910390f35b34801561068d57600080fd5b506106a860048036038101906106a39190614903565b611a1e565b005b3480156106b657600080fd5b506106d160048036038101906106cc9190614752565b611a80565b6040516106de9190613fdf565b60405180910390f35b3480156106f357600080fd5b5061070e60048036038101906107099190613f71565b611acb565b60405161071b9190613f19565b60405180910390f35b34801561073057600080fd5b5061074b600480360381019061074691906141ee565b611c1d565b6040516107589190613f19565b60405180910390f35b34801561076d57600080fd5b5061078860048036038101906107839190614986565b611cd3565b005b34801561079657600080fd5b506107b160048036038101906107ac91906141ee565b611e33565b6040516107be9190613f19565b60405180910390f35b3480156107d357600080fd5b506107ee60048036038101906107e991906149f5565b611ee9565b6040516107fb9190613e65565b60405180910390f35b61081e60048036038101906108199190614752565b611f7d565b005b34801561082c57600080fd5b5061084760048036038101906108429190614a35565b61243a565b005b34801561085557600080fd5b5061085e612579565b60405161086b9190614be0565b60405180910390f35b34801561088057600080fd5b5061089b60048036038101906108969190614752565b612757565b6040516108a891906146bb565b60405180910390f35b60007f80ac58cd000000000000000000000000000000000000000000000000000000007bffffffffffffffffffffffffffffffffffffffffffffffffffffffff1916827bffffffffffffffffffffffffffffffffffffffffffffffffffffffff1916148061097c57507f5b5e139f000000000000000000000000000000000000000000000000000000007bffffffffffffffffffffffffffffffffffffffffffffffffffffffff1916827bffffffffffffffffffffffffffffffffffffffffffffffffffffffff1916145b8061098c575061098b82612899565b5b9050919050565b6060600080546109a290614c31565b80601f01602080910402602001604051908101604052809291908181526020018280546109ce90614c31565b8015610a1b5780601f106109f057610100808354040283529160200191610a1b565b820191906000526020600020905b8154815290600101906020018083116109fe57829003601f168201915b5050505050905090565b6000610a3082612903565b610a6f576040517f08c379a0000000000000000000000000000000000000000000000000000000008152600401610a6690614cd5565b60405180910390fd5b6004600083815260200190815260200160002060009054906101000a900473ffffffffffffffffffffffffffffffffffffffff169050919050565b6000610ab58261141e565b90508073ffffffffffffffffffffffffffffffffffffffff168373ffffffffffffffffffffffffffffffffffffffff161415610b26576040517f08c379a0000000000000000000000000000000000000000000000000000000008152600401610b1d90614d67565b60405180910390fd5b8073ffffffffffffffffffffffffffffffffffffffff16610b4561296f565b73ffffffffffffffffffffffffffffffffffffffff161480610b745750610b7381610b6e61296f565b611ee9565b5b610bb3576040517f08c379a0000000000000000000000000000000000000000000000000000000008152600401610baa90614df9565b60405180910390fd5b610bbd8383612977565b505050565b610bd3610bcd61296f565b82612a30565b610c12576040517f08c379a0000000000000000000000000000000000000000000000000000000008152600401610c0990614e8b565b60405180910390fd5b610c1d838383612b0e565b505050565b600c818051602081018201805184825260208301602085012081835280955050505050506000915054906101000a900473ffffffffffffffffffffffffffffffffffffffff1681565b60088054610c7890614c31565b80601f0160208091040260200160405190810160405280929190818152602001828054610ca490614c31565b8015610cf15780601f10610cc657610100808354040283529160200191610cf1565b820191906000526020600020905b815481529060010190602001808311610cd457829003601f168201915b505050505081565b6011818051602081018201805184825260208301602085012081835280955050505050506000915090508054610d2e90614c31565b80601f0160208091040260200160405190810160405280929190818152602001828054610d5a90614c31565b8015610da75780601f10610d7c57610100808354040283529160200191610da7565b820191906000526020600020905b815481529060010190602001808311610d8a57829003601f168201915b505050505081565b60606012805480602002602001604051908101604052809291908181526020016000905b82821015610f1c57838290600052602060002090600502016040518060a00160405290816000820160009054906101000a900473ffffffffffffffffffffffffffffffffffffffff1673ffffffffffffffffffffffffffffffffffffffff1673ffffffffffffffffffffffffffffffffffffffff168152602001600182018054610e5c90614c31565b80601f0160208091040260200160405190810160405280929190818152602001828054610e8890614c31565b8015610ed55780601f10610eaa57610100808354040283529160200191610ed5565b820191906000526020600020905b815481529060010190602001808311610eb857829003601f168201915b50505050508152602001600282015481526020016003820160009054906101000a900460ff1615151515815260200160048201548152505081526020019060010190610dd3565b50505050905090565b610f4083838360405180602001604052806000815250611a1e565b505050565b60606013805480602002602001604051908101604052809291908181526020016000905b828210156110a857838290600052602060002090600402016040518060800160405290816000820160009054906101000a900473ffffffffffffffffffffffffffffffffffffffff1673ffffffffffffffffffffffffffffffffffffffff1673ffffffffffffffffffffffffffffffffffffffff168152602001600182018054610ff290614c31565b80601f016020809104026020016040519081016040528092919081815260200182805461101e90614c31565b801561106b5780601f106110405761010080835404028352916020019161106b565b820191906000526020600020905b81548152906001019060200180831161104e57829003601f168201915b505050505081526020016002820160009054906101000a900460ff1615151515815260200160038201548152505081526020019060010190610f69565b50505050905090565b600d60205280600052604060002060009150905080546110d090614c31565b80601f01602080910402602001604051908101604052809291908181526020018280546110fc90614c31565b80156111495780601f1061111e57610100808354040283529160200191611149565b820191906000526020600020905b81548152906001019060200180831161112c57829003601f168201915b505050505081565b3373ffffffffffffffffffffffffffffffffffffffff16600c868660405161117a929190614edb565b908152602001604051809103902060009054906101000a900473ffffffffffffffffffffffffffffffffffffffff1673ffffffffffffffffffffffffffffffffffffffff16146111c957600080fd5b60126040518060a001604052803373ffffffffffffffffffffffffffffffffffffffff168152602001858152602001428152602001841515815260200183815250908060018154018082558091505060019003906000526020600020906005020160009091909190915060008201518160000160006101000a81548173ffffffffffffffffffffffffffffffffffffffff021916908373ffffffffffffffffffffffffffffffffffffffff1602179055506020820151816001019080519060200190611296929190613c88565b506040820151816002015560608201518160030160006101000a81548160ff0219169083151502179055506080820151816004015550506001600960008282546112e09190614f23565b925050819055506001601086866040516112fb929190614edb565b908152602001604051809103902060008282546113189190614f23565b925050819055506113c36040518060400160405280601381526020017f2573206e6f772068617320256420706f7374730000000000000000000000000081525086868080601f016020809104026020016040519081016040528093929190818152602001838380828437600081840152601f19601f82011690508083019250505050505050601088886040516113af929190614edb565b908152602001604051809103902054612d75565b3373ffffffffffffffffffffffffffffffffffffffff167f03475f924a3c1b6d5fcaa4efec923e4b3a7a925ed3b7274d2e1329be527a4b538442858560405161140f9493929190614f79565b60405180910390a25050505050565b6000806002600084815260200190815260200160002060009054906101000a900473ffffffffffffffffffffffffffffffffffffffff169050600073ffffffffffffffffffffffffffffffffffffffff168173ffffffffffffffffffffffffffffffffffffffff1614156114c7576040517f08c379a00000000000000000000000000000000000000000000000000000000081526004016114be90615037565b60405180910390fd5b80915050919050565b60008073ffffffffffffffffffffffffffffffffffffffff168273ffffffffffffffffffffffffffffffffffffffff161415611541576040517f08c379a0000000000000000000000000000000000000000000000000000000008152600401611538906150c9565b60405180910390fd5b600360008373ffffffffffffffffffffffffffffffffffffffff1673ffffffffffffffffffffffffffffffffffffffff168152602001908152602001600020549050919050565b6010818051602081018201805184825260208301602085012081835280955050505050506000915090505481565b3373ffffffffffffffffffffffffffffffffffffffff16601282815481106115e1576115e06150e9565b5b906000526020600020906005020160000160009054906101000a900473ffffffffffffffffffffffffffffffffffffffff1673ffffffffffffffffffffffffffffffffffffffff161461163357600080fd5b8160128281548110611648576116476150e9565b5b906000526020600020906005020160030160006101000a81548160ff0219169083151502179055507fcd9ad85660d94434bcf9badcbf85df3b115da03a765008802b90889202b8d2d082826040516116a1929190615118565b60405180910390a15050565b601460009054906101000a900473ffffffffffffffffffffffffffffffffffffffff1681565b6060600180546116e290614c31565b80601f016020809104026020016040519081016040528092919081815260200182805461170e90614c31565b801561175b5780601f106117305761010080835404028352916020019161175b565b820191906000526020600020905b81548152906001019060200180831161173e57829003601f168201915b5050505050905090565b600060036117b684848080601f016020809104026020016040519081016040528093929190818152602001838380828437600081840152601f19601f82011690508083019250505050505050612e14565b101580156118115750600c61180e84848080601f016020809104026020016040519081016040528093929190818152602001838380828437600081840152601f19601f82011690508083019250505050505050612e14565b11155b905092915050565b61182b61182461296f565b8383612fc9565b5050565b60001515831515141561197257601360405180608001604052803373ffffffffffffffffffffffffffffffffffffffff168152602001868152602001851515815260200184815250908060018154018082558091505060019003906000526020600020906004020160009091909190915060008201518160000160006101000a81548173ffffffffffffffffffffffffffffffffffffffff021916908373ffffffffffffffffffffffffffffffffffffffff1602179055506020820151816001019080519060200190611903929190613c88565b5060408201518160020160006101000a81548160ff021916908315150217905550606082015181600301555050600160128381548110611946576119456150e9565b5b906000526020600020906005020160040160008282546119669190614f23565b925050819055506119ed565b8260138281548110611987576119866150e9565b5b906000526020600020906004020160020160006101000a81548160ff0219169083151502179055506001601283815481106119c5576119c46150e9565b5b906000526020600020906005020160040160008282546119e59190615141565b925050819055505b50505050565b600060108383604051611a07929190614edb565b908152602001604051809103902054905092915050565b611a2f611a2961296f565b83612a30565b611a6e576040517f08c379a0000000000000000000000000000000000000000000000000000000008152600401611a6590614e8b565b60405180910390fd5b611a7a84848484613136565b50505050565b6000600c8383604051611a94929190614edb565b908152602001604051809103902060009054906101000a900473ffffffffffffffffffffffffffffffffffffffff16905092915050565b6060611ad682612903565b611b15576040517f08c379a0000000000000000000000000000000000000000000000000000000008152600401611b0c906151e7565b60405180910390fd5b6000600660008481526020019081526020016000208054611b3590614c31565b80601f0160208091040260200160405190810160405280929190818152602001828054611b6190614c31565b8015611bae5780601f10611b8357610100808354040283529160200191611bae565b820191906000526020600020905b815481529060010190602001808311611b9157829003601f168201915b505050505090506000611bbf613192565b9050600081511415611bd5578192505050611c18565b600082511115611c0a578082604051602001611bf2929190615238565b60405160208183030381529060405292505050611c18565b611c13846131a9565b925050505b919050565b600e818051602081018201805184825260208301602085012081835280955050505050506000915090508054611c5290614c31565b80601f0160208091040260200160405190810160405280929190818152602001828054611c7e90614c31565b8015611ccb5780601f10611ca057610100808354040283529160200191611ccb565b820191906000526020600020905b815481529060010190602001808311611cae57829003601f168201915b505050505081565b3373ffffffffffffffffffffffffffffffffffffffff1660128281548110611cfe57611cfd6150e9565b5b906000526020600020906005020160000160009054906101000a900473ffffffffffffffffffffffffffffffffffffffff1673ffffffffffffffffffffffffffffffffffffffff1614611d5057600080fd5b8260128281548110611d6557611d646150e9565b5b90600052602060002090600502016001019080519060200190611d89929190613c88565b508160128281548110611d9f57611d9e6150e9565b5b906000526020600020906005020160030160006101000a81548160ff0219169083151502179055504260128281548110611ddc57611ddb6150e9565b5b9060005260206000209060050201600201819055507f4b55149cf2c28b95bb63a440008cef5dc3592db2a7d50fb8eecacb2c8bc487ba83428484604051611e269493929190614f79565b60405180910390a1505050565b600f818051602081018201805184825260208301602085012081835280955050505050506000915090508054611e6890614c31565b80601f0160208091040260200160405190810160405280929190818152602001828054611e9490614c31565b8015611ee15780601f10611eb657610100808354040283529160200191611ee1565b820191906000526020600020905b815481529060010190602001808311611ec457829003601f168201915b505050505081565b6000600560008473ffffffffffffffffffffffffffffffffffffffff1673ffffffffffffffffffffffffffffffffffffffff16815260200190815260200160002060008373ffffffffffffffffffffffffffffffffffffffff1673ffffffffffffffffffffffffffffffffffffffff16815260200190815260200160002060009054906101000a900460ff16905092915050565b600073ffffffffffffffffffffffffffffffffffffffff16600c8383604051611fa7929190614edb565b908152602001604051809103902060009054906101000a900473ffffffffffffffffffffffffffffffffffffffff1673ffffffffffffffffffffffffffffffffffffffff1614612023576040517f3a81d6fc00000000000000000000000000000000000000000000000000000000815260040160405180910390fd5b61202d8282611765565b6120705781816040517f7f19f48d000000000000000000000000000000000000000000000000000000008152600401612067929190615289565b60405180910390fd5b600061207c8383612757565b9050803410156120c1576040517f08c379a00000000000000000000000000000000000000000000000000000000081526004016120b8906152f9565b60405180910390fd5b6000838360086040516020016120d9939291906153f9565b60405160208183030381529060405290506000600a82600b6040516020016121039392919061542a565b604051602081830303815290604052905060006121206007613250565b9050600061217187878080601f016020809104026020016040519081016040528093929190818152602001838380828437600081840152601f19601f82011690508083019250505050505050612e14565b9050600061217e8261325e565b9050612272604051806060016040528060318152602001615f146031913989898080601f016020809104026020016040519081016040528093929190818152602001838380828437600081840152601f19601f82011690508083019250505050505050600880546121ee90614c31565b80601f016020809104026020016040519081016040528092919081815260200182805461221a90614c31565b80156122675780601f1061223c57610100808354040283529160200191612267565b820191906000526020600020905b81548152906001019060200180831161224a57829003601f168201915b5050505050866133bf565b60006122a88661228187613461565b84604051602001612294939291906155fd565b604051602081830303815290604052613461565b90506000816040516020016122bd91906156a6565b60405160208183030381529060405290506122ef604051806060016040528060398152602001615edb603991396135f9565b61232e6040518060400160405280600e81526020017f46696e616c20746f6b656e555249000000000000000000000000000000000000815250826127fd565b61234f604051806060016040528060398152602001615f45603991396135f9565b6123593386613692565b61236385826136b0565b33600c8b8b604051612376929190614edb565b908152602001604051809103902060006101000a81548173ffffffffffffffffffffffffffffffffffffffff021916908373ffffffffffffffffffffffffffffffffffffffff1602179055506124016040518060400160405280601b81526020017f2573206861732072656769737465726564206120646f6d61696e21000000000081525033613724565b61240b60076137c0565b8989600d6000888152602001908152602001600020919061242d929190613d0e565b5050505050505050505050565b600c888860405161244c929190614edb565b908152602001604051809103902060009054906101000a900473ffffffffffffffffffffffffffffffffffffffff1673ffffffffffffffffffffffffffffffffffffffff163373ffffffffffffffffffffffffffffffffffffffff16146124df576040517f82b4290000000000000000000000000000000000000000000000000000000000815260040160405180910390fd5b8585600e8a8a6040516124f3929190614edb565b9081526020016040518091039020919061250e929190613d0e565b508383600f8a8a604051612523929190614edb565b9081526020016040518091039020919061253e929190613d0e565b50818160118a8a604051612553929190614edb565b9081526020016040518091039020919061256e929190613d0e565b505050505050505050565b60606125b96040518060400160405280601f81526020017f47657474696e6720616c6c206e616d65732066726f6d20636f6e7472616374008152506135f9565b60006125c56007613250565b67ffffffffffffffff8111156125de576125dd6140c3565b5b60405190808252806020026020018201604052801561261157816020015b60608152602001906001900390816125fc5790505b50905060005b6126216007613250565b81101561274f57600d6000828152602001908152602001600020805461264690614c31565b80601f016020809104026020016040519081016040528092919081815260200182805461267290614c31565b80156126bf5780601f10612694576101008083540402835291602001916126bf565b820191906000526020600020905b8154815290600101906020018083116126a257829003601f168201915b50505050508282815181106126d7576126d66150e9565b5b602002602001018190525061273c6040518060400160405280601781526020017f4e616d6520666f7220746f6b656e2025642069732025730000000000000000008152508284848151811061272f5761272e6150e9565b5b60200260200101516137d6565b8080612747906156c8565b915050612617565b508091505090565b6000806127a784848080601f016020809104026020016040519081016040528093929190818152602001838380828437600081840152601f19601f82011690508083019250505050505050612e14565b9050600081116127b657600080fd5b60038114156127d0576706f05b59d3b200009150506127f7565b60048114156127ea57670429d069189e00009150506127f7565b67016345785d8a00009150505b92915050565b6128958282604051602401612813929190615711565b6040516020818303038152906040527f4b5c4277000000000000000000000000000000000000000000000000000000007bffffffffffffffffffffffffffffffffffffffffffffffffffffffff19166020820180517bffffffffffffffffffffffffffffffffffffffffffffffffffffffff8381831617835250505050613875565b5050565b60007f01ffc9a7000000000000000000000000000000000000000000000000000000007bffffffffffffffffffffffffffffffffffffffffffffffffffffffff1916827bffffffffffffffffffffffffffffffffffffffffffffffffffffffff1916149050919050565b60008073ffffffffffffffffffffffffffffffffffffffff166002600084815260200190815260200160002060009054906101000a900473ffffffffffffffffffffffffffffffffffffffff1673ffffffffffffffffffffffffffffffffffffffff1614159050919050565b600033905090565b816004600083815260200190815260200160002060006101000a81548173ffffffffffffffffffffffffffffffffffffffff021916908373ffffffffffffffffffffffffffffffffffffffff160217905550808273ffffffffffffffffffffffffffffffffffffffff166129ea8361141e565b73ffffffffffffffffffffffffffffffffffffffff167f8c5be1e5ebec7d5bd14f71427d1e84f3dd0314c0f7b2291e5b200ac8c7c3b92560405160405180910390a45050565b6000612a3b82612903565b612a7a576040517f08c379a0000000000000000000000000000000000000000000000000000000008152600401612a71906157ba565b60405180910390fd5b6000612a858361141e565b90508073ffffffffffffffffffffffffffffffffffffffff168473ffffffffffffffffffffffffffffffffffffffff161480612ac75750612ac68185611ee9565b5b80612b0557508373ffffffffffffffffffffffffffffffffffffffff16612aed84610a25565b73ffffffffffffffffffffffffffffffffffffffff16145b91505092915050565b8273ffffffffffffffffffffffffffffffffffffffff16612b2e8261141e565b73ffffffffffffffffffffffffffffffffffffffff1614612b84576040517f08c379a0000000000000000000000000000000000000000000000000000000008152600401612b7b9061584c565b60405180910390fd5b600073ffffffffffffffffffffffffffffffffffffffff168273ffffffffffffffffffffffffffffffffffffffff161415612bf4576040517f08c379a0000000000000000000000000000000000000000000000000000000008152600401612beb906158de565b60405180910390fd5b612bff83838361389e565b612c0a600082612977565b6001600360008573ffffffffffffffffffffffffffffffffffffffff1673ffffffffffffffffffffffffffffffffffffffff1681526020019081526020016000206000828254612c5a9190615141565b925050819055506001600360008473ffffffffffffffffffffffffffffffffffffffff1673ffffffffffffffffffffffffffffffffffffffff1681526020019081526020016000206000828254612cb19190614f23565b92505081905550816002600083815260200190815260200160002060006101000a81548173ffffffffffffffffffffffffffffffffffffffff021916908373ffffffffffffffffffffffffffffffffffffffff160217905550808273ffffffffffffffffffffffffffffffffffffffff168473ffffffffffffffffffffffffffffffffffffffff167fddf252ad1be2c89b69c2b068fc378daa952ba7f163c4a11628f55a4df523b3ef60405160405180910390a4612d708383836138a3565b505050565b612e0f838383604051602401612d8d939291906158fe565b6040516020818303038152906040527ff362ca59000000000000000000000000000000000000000000000000000000007bffffffffffffffffffffffffffffffffffffffffffffffffffffffff19166020820180517bffffffffffffffffffffffffffffffffffffffffffffffffffffffff8381831617835250505050613875565b505050565b60008060008084519050600092505b80821015612fbe576000858381518110612e4057612e3f6150e9565b5b602001015160f81c60f81b9050608060f81b817effffffffffffffffffffffffffffffffffffffffffffffffffffffffffffff19161015612e8f57600183612e889190614f23565b9250612faa565b60e060f81b817effffffffffffffffffffffffffffffffffffffffffffffffffffffffffffff19161015612ed157600283612eca9190614f23565b9250612fa9565b60f060f81b817effffffffffffffffffffffffffffffffffffffffffffffffffffffffffffff19161015612f1357600383612f0c9190614f23565b9250612fa8565b60f8801b817effffffffffffffffffffffffffffffffffffffffffffffffffffffffffffff19161015612f5457600483612f4d9190614f23565b9250612fa7565b60fc60f81b817effffffffffffffffffffffffffffffffffffffffffffffffffffffffffffff19161015612f9657600583612f8f9190614f23565b9250612fa6565b600683612fa39190614f23565b92505b5b5b5b5b508280612fb6906156c8565b935050612e23565b829350505050919050565b8173ffffffffffffffffffffffffffffffffffffffff168373ffffffffffffffffffffffffffffffffffffffff161415613038576040517f08c379a000000000000000000000000000000000000000000000000000000000815260040161302f9061598f565b60405180910390fd5b80600560008573ffffffffffffffffffffffffffffffffffffffff1673ffffffffffffffffffffffffffffffffffffffff16815260200190815260200160002060008473ffffffffffffffffffffffffffffffffffffffff1673ffffffffffffffffffffffffffffffffffffffff16815260200190815260200160002060006101000a81548160ff0219169083151502179055508173ffffffffffffffffffffffffffffffffffffffff168373ffffffffffffffffffffffffffffffffffffffff167f17307eab39ab6107e8899845ad3d59bd9653f200f220920489ca2b5937696c31836040516131299190613e65565b60405180910390a3505050565b613141848484612b0e565b61314d848484846138a8565b61318c576040517f08c379a000000000000000000000000000000000000000000000000000000000815260040161318390615a21565b60405180910390fd5b50505050565b606060405180602001604052806000815250905090565b60606131b482612903565b6131f3576040517f08c379a00000000000000000000000000000000000000000000000000000000081526004016131ea90615ab3565b60405180910390fd5b60006131fd613192565b9050600081511161321d5760405180602001604052806000815250613248565b806132278461325e565b604051602001613238929190615238565b6040516020818303038152906040525b915050919050565b600081600001549050919050565b606060008214156132a6576040518060400160405280600181526020017f300000000000000000000000000000000000000000000000000000000000000081525090506133ba565b600082905060005b600082146132d85780806132c1906156c8565b915050600a826132d19190615b02565b91506132ae565b60008167ffffffffffffffff8111156132f4576132f36140c3565b5b6040519080825280601f01601f1916602001820160405280156133265781602001600182028036833780820191505090505b5090505b600085146133b35760018261333f9190615141565b9150600a8561334e9190615b33565b603061335a9190614f23565b60f81b8183815181106133705761336f6150e9565b5b60200101907effffffffffffffffffffffffffffffffffffffffffffffffffffffffffffff1916908160001a905350600a856133ac9190615b02565b945061332a565b8093505050505b919050565b61345b848484846040516024016133d99493929190615b64565b6040516020818303038152906040527f9fd009f5000000000000000000000000000000000000000000000000000000007bffffffffffffffffffffffffffffffffffffffffffffffffffffffff19166020820180517bffffffffffffffffffffffffffffffffffffffffffffffffffffffff8381831617835250505050613875565b50505050565b6060600082519050600081141561348a57604051806020016040528060008152509150506135f4565b6000600360028361349b9190614f23565b6134a59190615b02565b60046134b19190615bbe565b905060006020826134c29190614f23565b67ffffffffffffffff8111156134db576134da6140c3565b5b6040519080825280601f01601f19166020018201604052801561350d5781602001600182028036833780820191505090505b5090506000604051806060016040528060408152602001615f7e604091399050600181016020830160005b868110156135b15760038101905062ffffff818a015116603f8160121c168401518060081b905060ff603f83600c1c1686015116810190508060081b905060ff603f8360061c1686015116810190508060081b905060ff603f831686015116810190508060e01b90508084526004840193505050613538565b5060038606600181146135cb57600281146135db576135e6565b613d3d60f01b60028303526135e6565b603d60f81b60018303525b508484525050819450505050505b919050565b61368f8160405160240161360d9190613f19565b6040516020818303038152906040527f41304fac000000000000000000000000000000000000000000000000000000007bffffffffffffffffffffffffffffffffffffffffffffffffffffffff19166020820180517bffffffffffffffffffffffffffffffffffffffffffffffffffffffff8381831617835250505050613875565b50565b6136ac828260405180602001604052806000815250613a30565b5050565b6136b982612903565b6136f8576040517f08c379a00000000000000000000000000000000000000000000000000000000081526004016136ef90615c8a565b60405180910390fd5b8060066000848152602001908152602001600020908051906020019061371f929190613c88565b505050565b6137bc828260405160240161373a929190615caa565b6040516020818303038152906040527f319af333000000000000000000000000000000000000000000000000000000007bffffffffffffffffffffffffffffffffffffffffffffffffffffffff19166020820180517bffffffffffffffffffffffffffffffffffffffffffffffffffffffff8381831617835250505050613875565b5050565b6001816000016000828254019250508190555050565b6138708383836040516024016137ee93929190615cda565b6040516020818303038152906040527fa3f5c739000000000000000000000000000000000000000000000000000000007bffffffffffffffffffffffffffffffffffffffffffffffffffffffff19166020820180517bffffffffffffffffffffffffffffffffffffffffffffffffffffffff8381831617835250505050613875565b505050565b60008151905060006a636f6e736f6c652e6c6f679050602083016000808483855afa5050505050565b505050565b505050565b60006138c98473ffffffffffffffffffffffffffffffffffffffff16613a8b565b15613a23578373ffffffffffffffffffffffffffffffffffffffff1663150b7a026138f261296f565b8786866040518563ffffffff1660e01b81526004016139149493929190615d74565b6020604051808303816000875af192505050801561395057506040513d601f19601f8201168201806040525081019061394d9190615dd5565b60015b6139d3573d8060008114613980576040519150601f19603f3d011682016040523d82523d6000602084013e613985565b606091505b506000815114156139cb576040517f08c379a00000000000000000000000000000000000000000000000000000000081526004016139c290615a21565b60405180910390fd5b805181602001fd5b63150b7a0260e01b7bffffffffffffffffffffffffffffffffffffffffffffffffffffffff1916817bffffffffffffffffffffffffffffffffffffffffffffffffffffffff191614915050613a28565b600190505b949350505050565b613a3a8383613aae565b613a4760008484846138a8565b613a86576040517f08c379a0000000000000000000000000000000000000000000000000000000008152600401613a7d90615a21565b60405180910390fd5b505050565b6000808273ffffffffffffffffffffffffffffffffffffffff163b119050919050565b600073ffffffffffffffffffffffffffffffffffffffff168273ffffffffffffffffffffffffffffffffffffffff161415613b1e576040517f08c379a0000000000000000000000000000000000000000000000000000000008152600401613b1590615e4e565b60405180910390fd5b613b2781612903565b15613b67576040517f08c379a0000000000000000000000000000000000000000000000000000000008152600401613b5e90615eba565b60405180910390fd5b613b736000838361389e565b6001600360008473ffffffffffffffffffffffffffffffffffffffff1673ffffffffffffffffffffffffffffffffffffffff1681526020019081526020016000206000828254613bc39190614f23565b92505081905550816002600083815260200190815260200160002060006101000a81548173ffffffffffffffffffffffffffffffffffffffff021916908373ffffffffffffffffffffffffffffffffffffffff160217905550808273ffffffffffffffffffffffffffffffffffffffff16600073ffffffffffffffffffffffffffffffffffffffff167fddf252ad1be2c89b69c2b068fc378daa952ba7f163c4a11628f55a4df523b3ef60405160405180910390a4613c84600083836138a3565b5050565b828054613c9490614c31565b90600052602060002090601f016020900481019282613cb65760008555613cfd565b82601f10613ccf57805160ff1916838001178555613cfd565b82800160010185558215613cfd579182015b82811115613cfc578251825591602001919060010190613ce1565b5b509050613d0a9190613d94565b5090565b828054613d1a90614c31565b90600052602060002090601f016020900481019282613d3c5760008555613d83565b82601f10613d5557803560ff1916838001178555613d83565b82800160010185558215613d83579182015b82811115613d82578235825591602001919060010190613d67565b5b509050613d909190613d94565b5090565b5b80821115613dad576000816000905550600101613d95565b5090565b6000604051905090565b600080fd5b600080fd5b60007fffffffff0000000000000000000000000000000000000000000000000000000082169050919050565b613dfa81613dc5565b8114613e0557600080fd5b50565b600081359050613e1781613df1565b92915050565b600060208284031215613e3357613e32613dbb565b5b6000613e4184828501613e08565b91505092915050565b60008115159050919050565b613e5f81613e4a565b82525050565b6000602082019050613e7a6000830184613e56565b92915050565b600081519050919050565b600082825260208201905092915050565b60005b83811015613eba578082015181840152602081019050613e9f565b83811115613ec9576000848401525b50505050565b6000601f19601f8301169050919050565b6000613eeb82613e80565b613ef58185613e8b565b9350613f05818560208601613e9c565b613f0e81613ecf565b840191505092915050565b60006020820190508181036000830152613f338184613ee0565b905092915050565b6000819050919050565b613f4e81613f3b565b8114613f5957600080fd5b50565b600081359050613f6b81613f45565b92915050565b600060208284031215613f8757613f86613dbb565b5b6000613f9584828501613f5c565b91505092915050565b600073ffffffffffffffffffffffffffffffffffffffff82169050919050565b6000613fc982613f9e565b9050919050565b613fd981613fbe565b82525050565b6000602082019050613ff46000830184613fd0565b92915050565b61400381613fbe565b811461400e57600080fd5b50565b60008135905061402081613ffa565b92915050565b6000806040838503121561403d5761403c613dbb565b5b600061404b85828601614011565b925050602061405c85828601613f5c565b9150509250929050565b60008060006060848603121561407f5761407e613dbb565b5b600061408d86828701614011565b935050602061409e86828701614011565b92505060406140af86828701613f5c565b9150509250925092565b600080fd5b600080fd5b7f4e487b7100000000000000000000000000000000000000000000000000000000600052604160045260246000fd5b6140fb82613ecf565b810181811067ffffffffffffffff8211171561411a576141196140c3565b5b80604052505050565b600061412d613db1565b905061413982826140f2565b919050565b600067ffffffffffffffff821115614159576141586140c3565b5b61416282613ecf565b9050602081019050919050565b82818337600083830152505050565b600061419161418c8461413e565b614123565b9050828152602081018484840111156141ad576141ac6140be565b5b6141b884828561416f565b509392505050565b600082601f8301126141d5576141d46140b9565b5b81356141e584826020860161417e565b91505092915050565b60006020828403121561420457614203613dbb565b5b600082013567ffffffffffffffff81111561422257614221613dc0565b5b61422e848285016141c0565b91505092915050565b600081519050919050565b600082825260208201905092915050565b6000819050602082019050919050565b61426c81613fbe565b82525050565b600082825260208201905092915050565b600061428e82613e80565b6142988185614272565b93506142a8818560208601613e9c565b6142b181613ecf565b840191505092915050565b6142c581613f3b565b82525050565b6142d481613e4a565b82525050565b600060a0830160008301516142f26000860182614263565b506020830151848203602086015261430a8282614283565b915050604083015161431f60408601826142bc565b50606083015161433260608601826142cb565b50608083015161434560808601826142bc565b508091505092915050565b600061435c83836142da565b905092915050565b6000602082019050919050565b600061437c82614237565b6143868185614242565b93508360208202850161439885614253565b8060005b858110156143d457848403895281516143b58582614350565b94506143c083614364565b925060208a0199505060018101905061439c565b50829750879550505050505092915050565b600060208201905081810360008301526144008184614371565b905092915050565b600081519050919050565b600082825260208201905092915050565b6000819050602082019050919050565b600060808301600083015161444c6000860182614263565b50602083015184820360208601526144648282614283565b915050604083015161447960408601826142cb565b50606083015161448c60608601826142bc565b508091505092915050565b60006144a38383614434565b905092915050565b6000602082019050919050565b60006144c382614408565b6144cd8185614413565b9350836020820285016144df85614424565b8060005b8581101561451b57848403895281516144fc8582614497565b9450614507836144ab565b925060208a019950506001810190506144e3565b50829750879550505050505092915050565b6000602082019050818103600083015261454781846144b8565b905092915050565b600080fd5b600080fd5b60008083601f84011261456f5761456e6140b9565b5b8235905067ffffffffffffffff81111561458c5761458b61454f565b5b6020830191508360018202830111156145a8576145a7614554565b5b9250929050565b6145b881613e4a565b81146145c357600080fd5b50565b6000813590506145d5816145af565b92915050565b6000806000806000608086880312156145f7576145f6613dbb565b5b600086013567ffffffffffffffff81111561461557614614613dc0565b5b61462188828901614559565b9550955050602086013567ffffffffffffffff81111561464457614643613dc0565b5b614650888289016141c0565b9350506040614661888289016145c6565b925050606061467288828901613f5c565b9150509295509295909350565b60006020828403121561469557614694613dbb565b5b60006146a384828501614011565b91505092915050565b6146b581613f3b565b82525050565b60006020820190506146d060008301846146ac565b92915050565b600080604083850312156146ed576146ec613dbb565b5b60006146fb858286016145c6565b925050602061470c85828601613f5c565b9150509250929050565b600061472182613f9e565b9050919050565b61473181614716565b82525050565b600060208201905061474c6000830184614728565b92915050565b6000806020838503121561476957614768613dbb565b5b600083013567ffffffffffffffff81111561478757614786613dc0565b5b61479385828601614559565b92509250509250929050565b600080604083850312156147b6576147b5613dbb565b5b60006147c485828601614011565b92505060206147d5858286016145c6565b9150509250929050565b600080600080608085870312156147f9576147f8613dbb565b5b600085013567ffffffffffffffff81111561481757614816613dc0565b5b614823878288016141c0565b9450506020614834878288016145c6565b935050604061484587828801613f5c565b925050606061485687828801613f5c565b91505092959194509250565b600067ffffffffffffffff82111561487d5761487c6140c3565b5b61488682613ecf565b9050602081019050919050565b60006148a66148a184614862565b614123565b9050828152602081018484840111156148c2576148c16140be565b5b6148cd84828561416f565b509392505050565b600082601f8301126148ea576148e96140b9565b5b81356148fa848260208601614893565b91505092915050565b6000806000806080858703121561491d5761491c613dbb565b5b600061492b87828801614011565b945050602061493c87828801614011565b935050604061494d87828801613f5c565b925050606085013567ffffffffffffffff81111561496e5761496d613dc0565b5b61497a878288016148d5565b91505092959194509250565b60008060006060848603121561499f5761499e613dbb565b5b600084013567ffffffffffffffff8111156149bd576149bc613dc0565b5b6149c9868287016141c0565b93505060206149da868287016145c6565b92505060406149eb86828701613f5c565b9150509250925092565b60008060408385031215614a0c57614a0b613dbb565b5b6000614a1a85828601614011565b9250506020614a2b85828601614011565b9150509250929050565b6000806000806000806000806080898b031215614a5557614a54613dbb565b5b600089013567ffffffffffffffff811115614a7357614a72613dc0565b5b614a7f8b828c01614559565b9850985050602089013567ffffffffffffffff811115614aa257614aa1613dc0565b5b614aae8b828c01614559565b9650965050604089013567ffffffffffffffff811115614ad157614ad0613dc0565b5b614add8b828c01614559565b9450945050606089013567ffffffffffffffff811115614b0057614aff613dc0565b5b614b0c8b828c01614559565b92509250509295985092959890939650565b600081519050919050565b600082825260208201905092915050565b6000819050602082019050919050565b6000614b568383614283565b905092915050565b6000602082019050919050565b6000614b7682614b1e565b614b808185614b29565b935083602082028501614b9285614b3a565b8060005b85811015614bce5784840389528151614baf8582614b4a565b9450614bba83614b5e565b925060208a01995050600181019050614b96565b50829750879550505050505092915050565b60006020820190508181036000830152614bfa8184614b6b565b905092915050565b7f4e487b7100000000000000000000000000000000000000000000000000000000600052602260045260246000fd5b60006002820490506001821680614c4957607f821691505b60208210811415614c5d57614c5c614c02565b5b50919050565b7f4552433732313a20617070726f76656420717565727920666f72206e6f6e657860008201527f697374656e7420746f6b656e0000000000000000000000000000000000000000602082015250565b6000614cbf602c83613e8b565b9150614cca82614c63565b604082019050919050565b60006020820190508181036000830152614cee81614cb2565b9050919050565b7f4552433732313a20617070726f76616c20746f2063757272656e74206f776e6560008201527f7200000000000000000000000000000000000000000000000000000000000000602082015250565b6000614d51602183613e8b565b9150614d5c82614cf5565b604082019050919050565b60006020820190508181036000830152614d8081614d44565b9050919050565b7f4552433732313a20617070726f76652063616c6c6572206973206e6f74206f7760008201527f6e6572206e6f7220617070726f76656420666f7220616c6c0000000000000000602082015250565b6000614de3603883613e8b565b9150614dee82614d87565b604082019050919050565b60006020820190508181036000830152614e1281614dd6565b9050919050565b7f4552433732313a207472616e736665722063616c6c6572206973206e6f74206f60008201527f776e6572206e6f7220617070726f766564000000000000000000000000000000602082015250565b6000614e75603183613e8b565b9150614e8082614e19565b604082019050919050565b60006020820190508181036000830152614ea481614e68565b9050919050565b600081905092915050565b6000614ec28385614eab565b9350614ecf83858461416f565b82840190509392505050565b6000614ee8828486614eb6565b91508190509392505050565b7f4e487b7100000000000000000000000000000000000000000000000000000000600052601160045260246000fd5b6000614f2e82613f3b565b9150614f3983613f3b565b9250827fffffffffffffffffffffffffffffffffffffffffffffffffffffffffffffffff03821115614f6e57614f6d614ef4565b5b828201905092915050565b60006080820190508181036000830152614f938187613ee0565b9050614fa260208301866146ac565b614faf6040830185613e56565b614fbc60608301846146ac565b95945050505050565b7f4552433732313a206f776e657220717565727920666f72206e6f6e657869737460008201527f656e7420746f6b656e0000000000000000000000000000000000000000000000602082015250565b6000615021602983613e8b565b915061502c82614fc5565b604082019050919050565b6000602082019050818103600083015261505081615014565b9050919050565b7f4552433732313a2062616c616e636520717565727920666f7220746865207a6560008201527f726f206164647265737300000000000000000000000000000000000000000000602082015250565b60006150b3602a83613e8b565b91506150be82615057565b604082019050919050565b600060208201905081810360008301526150e2816150a6565b9050919050565b7f4e487b7100000000000000000000000000000000000000000000000000000000600052603260045260246000fd5b600060408201905061512d6000830185613e56565b61513a60208301846146ac565b9392505050565b600061514c82613f3b565b915061515783613f3b565b92508282101561516a57615169614ef4565b5b828203905092915050565b7f45524337323155524953746f726167653a2055524920717565727920666f722060008201527f6e6f6e6578697374656e7420746f6b656e000000000000000000000000000000602082015250565b60006151d1603183613e8b565b91506151dc82615175565b604082019050919050565b60006020820190508181036000830152615200816151c4565b9050919050565b600061521282613e80565b61521c8185614eab565b935061522c818560208601613e9c565b80840191505092915050565b60006152448285615207565b91506152508284615207565b91508190509392505050565b60006152688385613e8b565b935061527583858461416f565b61527e83613ecf565b840190509392505050565b600060208201905081810360008301526152a481848661525c565b90509392505050565b7f4e6f7420656e6f756768204d6174696320706169640000000000000000000000600082015250565b60006152e3601583613e8b565b91506152ee826152ad565b602082019050919050565b60006020820190508181036000830152615312816152d6565b9050919050565b7f2e00000000000000000000000000000000000000000000000000000000000000600082015250565b600061534f600183614eab565b915061535a82615319565b600182019050919050565b60008190508160005260206000209050919050565b6000815461538781614c31565b6153918186614eab565b945060018216600081146153ac57600181146153bd576153f0565b60ff198316865281860193506153f0565b6153c685615365565b60005b838110156153e8578154818901526001820191506020810190506153c9565b838801955050505b50505092915050565b6000615406828587614eb6565b915061541182615342565b915061541d828461537a565b9150819050949350505050565b6000615436828661537a565b91506154428285615207565b915061544e828461537a565b9150819050949350505050565b7f7b226e616d65223a202200000000000000000000000000000000000000000000600082015250565b6000615491600a83614eab565b915061549c8261545b565b600a82019050919050565b7f222c20226465736372697074696f6e223a20224120646f6d61696e206f6e207460008201527f6865206275696c6473706163652057616c6c206f662046616d65222c2022696d60208201527f616765223a2022646174613a696d6167652f7376672b786d6c3b62617365363460408201527f2c00000000000000000000000000000000000000000000000000000000000000606082015250565b600061554f606183614eab565b915061555a826154a7565b606182019050919050565b7f222c226c656e677468223a220000000000000000000000000000000000000000600082015250565b600061559b600c83614eab565b91506155a682615565565b600c82019050919050565b7f227d000000000000000000000000000000000000000000000000000000000000600082015250565b60006155e7600283614eab565b91506155f2826155b1565b600282019050919050565b600061560882615484565b91506156148286615207565b915061561f82615542565b915061562b8285615207565b91506156368261558e565b91506156428284615207565b915061564d826155da565b9150819050949350505050565b7f646174613a6170706c69636174696f6e2f6a736f6e3b6261736536342c000000600082015250565b6000615690601d83614eab565b915061569b8261565a565b601d82019050919050565b60006156b182615683565b91506156bd8284615207565b915081905092915050565b60006156d382613f3b565b91507fffffffffffffffffffffffffffffffffffffffffffffffffffffffffffffffff82141561570657615705614ef4565b5b600182019050919050565b6000604082019050818103600083015261572b8185613ee0565b9050818103602083015261573f8184613ee0565b90509392505050565b7f4552433732313a206f70657261746f7220717565727920666f72206e6f6e657860008201527f697374656e7420746f6b656e0000000000000000000000000000000000000000602082015250565b60006157a4602c83613e8b565b91506157af82615748565b604082019050919050565b600060208201905081810360008301526157d381615797565b9050919050565b7f4552433732313a207472616e736665722066726f6d20696e636f72726563742060008201527f6f776e6572000000000000000000000000000000000000000000000000000000602082015250565b6000615836602583613e8b565b9150615841826157da565b604082019050919050565b6000602082019050818103600083015261586581615829565b9050919050565b7f4552433732313a207472616e7366657220746f20746865207a65726f2061646460008201527f7265737300000000000000000000000000000000000000000000000000000000602082015250565b60006158c8602483613e8b565b91506158d38261586c565b604082019050919050565b600060208201905081810360008301526158f7816158bb565b9050919050565b600060608201905081810360008301526159188186613ee0565b9050818103602083015261592c8185613ee0565b905061593b60408301846146ac565b949350505050565b7f4552433732313a20617070726f766520746f2063616c6c657200000000000000600082015250565b6000615979601983613e8b565b915061598482615943565b602082019050919050565b600060208201905081810360008301526159a88161596c565b9050919050565b7f4552433732313a207472616e7366657220746f206e6f6e20455243373231526560008201527f63656976657220696d706c656d656e7465720000000000000000000000000000602082015250565b6000615a0b603283613e8b565b9150615a16826159af565b604082019050919050565b60006020820190508181036000830152615a3a816159fe565b9050919050565b7f4552433732314d657461646174613a2055524920717565727920666f72206e6f60008201527f6e6578697374656e7420746f6b656e0000000000000000000000000000000000602082015250565b6000615a9d602f83613e8b565b9150615aa882615a41565b604082019050919050565b60006020820190508181036000830152615acc81615a90565b9050919050565b7f4e487b7100000000000000000000000000000000000000000000000000000000600052601260045260246000fd5b6000615b0d82613f3b565b9150615b1883613f3b565b925082615b2857615b27615ad3565b5b828204905092915050565b6000615b3e82613f3b565b9150615b4983613f3b565b925082615b5957615b58615ad3565b5b828206905092915050565b60006080820190508181036000830152615b7e8187613ee0565b90508181036020830152615b928186613ee0565b90508181036040830152615ba68185613ee0565b9050615bb560608301846146ac565b95945050505050565b6000615bc982613f3b565b9150615bd483613f3b565b9250817fffffffffffffffffffffffffffffffffffffffffffffffffffffffffffffffff0483118215151615615c0d57615c0c614ef4565b5b828202905092915050565b7f45524337323155524953746f726167653a2055524920736574206f66206e6f6e60008201527f6578697374656e7420746f6b656e000000000000000000000000000000000000602082015250565b6000615c74602e83613e8b565b9150615c7f82615c18565b604082019050919050565b60006020820190508181036000830152615ca381615c67565b9050919050565b60006040820190508181036000830152615cc48185613ee0565b9050615cd36020830184613fd0565b9392505050565b60006060820190508181036000830152615cf48186613ee0565b9050615d0360208301856146ac565b8181036040830152615d158184613ee0565b9050949350505050565b600081519050919050565b600082825260208201905092915050565b6000615d4682615d1f565b615d508185615d2a565b9350615d60818560208601613e9c565b615d6981613ecf565b840191505092915050565b6000608082019050615d896000830187613fd0565b615d966020830186613fd0565b615da360408301856146ac565b8181036060830152615db58184615d3b565b905095945050505050565b600081519050615dcf81613df1565b92915050565b600060208284031215615deb57615dea613dbb565b5b6000615df984828501615dc0565b91505092915050565b7f4552433732313a206d696e7420746f20746865207a65726f2061646472657373600082015250565b6000615e38602083613e8b565b9150615e4382615e02565b602082019050919050565b60006020820190508181036000830152615e6781615e2b565b9050919050565b7f4552433732313a20746f6b656e20616c7265616479206d696e74656400000000600082015250565b6000615ea4601c83613e8b565b9150615eaf82615e6e565b602082019050919050565b60006020820190508181036000830152615ed381615e97565b905091905056fe0a2d2d2d2d2d2d2d2d2d2d2d2d2d2d2d2d2d2d2d2d2d2d2d2d2d2d2d2d2d2d2d2d2d2d2d2d2d2d2d2d2d2d2d2d2d2d2d2d2d2d2d2d2d2d2d2d5265676973746572696e672025732e2573206f6e2074686520636f6e7472616374207769746820746f6b656e49442025642d2d2d2d2d2d2d2d2d2d2d2d2d2d2d2d2d2d2d2d2d2d2d2d2d2d2d2d2d2d2d2d2d2d2d2d2d2d2d2d2d2d2d2d2d2d2d2d2d2d2d2d2d2d2d2d0a4142434445464748494a4b4c4d4e4f505152535455565758595a6162636465666768696a6b6c6d6e6f707172737475767778797a303132333435363738392b2fa2646970667358221220fc21f0127983d614ee1a842214a7c3620f533b1f7bce760fae9b947024cbe05764736f6c634300080a00333c73766720786d6c6e733d22687474703a2f2f7777772e77332e6f72672f323030302f737667222077696474683d2232373022206865696768743d22323730222066696c6c3d226e6f6e65223e3c706174682066696c6c3d2275726c282342292220643d224d302030683237307632373048307a222f3e3c646566733e3c66696c7465722069643d22412220636f6c6f722d696e746572706f6c6174696f6e2d66696c746572733d2273524742222066696c746572556e6974733d227573657253706163654f6e55736522206865696768743d22323730222077696474683d22323730223e3c666544726f70536861646f772064783d2230222064793d22312220737464446576696174696f6e3d22322220666c6f6f642d6f7061636974793d222e323235222077696474683d223230302522206865696768743d2232303025222f3e3c2f66696c7465723e3c2f646566733e3c7061746820643d224d37322e3836332034322e393439632d2e3636382d2e3338372d312e3432362d2e35392d322e3139372d2e3539732d312e3532392e3230342d322e3139372e35396c2d31302e30383120362e3033322d362e383520332e3933342d31302e30383120362e303332632d2e3636382e3338372d312e3432362e35392d322e3139372e3539732d312e3532392d2e3230342d322e3139372d2e35396c2d382e3031332d342e37323161342e353220342e35322030203020312d312e3538392d312e363136632d2e3338342d2e3636352d2e3539342d312e3431382d2e3630382d322e313837762d392e3331632d2e3031332d2e3737352e3138352d312e3533382e3537322d322e32303861342e323520342e323520302030203120312e3632352d312e3539356c372e3838342d342e3539632e3636382d2e33383720312e3432362d2e353920322e3139372d2e353973312e3532392e32303420322e3139372e35396c372e38383420342e353961342e353220342e353220302030203120312e35383920312e363136632e3338342e3636352e35393420312e3431382e36303820322e31383776362e3033326c362e38352d342e303635762d362e303332632e3031332d2e3737352d2e3138352d312e3533382d2e3537322d322e32303861342e323520342e32352030203020302d312e3632352d312e3539354c34312e3435362032342e3539632d2e3636382d2e3338372d312e3432362d2e35392d322e3139372d2e3539732d312e3532392e3230342d322e3139372e35396c2d31342e38363420382e36353561342e323520342e32352030203020302d312e36323520312e353935632d2e3338372e36372d2e35383520312e3433342d2e35373220322e3230387631372e343431632d2e3031332e3737352e31383520312e3533382e35373220322e32303861342e323520342e323520302030203020312e36323520312e3539356c31342e38363420382e363535632e3636382e33383720312e3432362e353920322e3139372e353973312e3532392d2e32303420322e3139372d2e35396c31302e3038312d352e39303120362e38352d342e3036352031302e3038312d352e393031632e3636382d2e33383720312e3432362d2e353920322e3139372d2e353973312e3532392e32303420322e3139372e35396c372e38383420342e353961342e353220342e353220302030203120312e35383920312e363136632e3338342e3636352e35393420312e3431382e36303820322e31383776392e333131632e3031332e3737352d2e31383520312e3533382d2e35373220322e32303861342e323520342e32352030203020312d312e36323520312e3539356c2d372e38383420342e373231632d2e3636382e3338372d312e3432362e35392d322e3139372e3539732d312e3532392d2e3230342d322e3139372d2e35396c2d372e3838342d342e353961342e353220342e35322030203020312d312e3538392d312e363136632d2e3338352d2e3636352d2e3539342d312e3431382d2e3630382d322e313837762d362e3033326c2d362e383520342e30363576362e303332632d2e3031332e3737352e31383520312e3533382e35373220322e32303861342e323520342e323520302030203020312e36323520312e3539356c31342e38363420382e363535632e3636382e33383720312e3432362e353920322e3139372e353973312e3532392d2e32303420322e3139372d2e35396c31342e3836342d382e363535632e3635372d2e33393420312e3230342d2e393520312e3538392d312e363136732e3539342d312e3431382e3630392d322e3138375635352e353338632e3031332d2e3737352d2e3138352d312e3533382d2e3537322d322e32303861342e323520342e32352030203020302d312e3632352d312e3539356c2d31342e3939332d382e3738367a222066696c6c3d2223666666222f3e3c646566733e3c6c696e6561724772616469656e742069643d2242222078313d2230222079313d2230222078323d22323730222079323d2232373022206772616469656e74556e6974733d227573657253706163654f6e557365223e3c73746f702073746f702d636f6c6f723d2223636235656565222f3e3c73746f70206f66667365743d2231222073746f702d636f6c6f723d2223306364376534222073746f702d6f7061636974793d222e3939222f3e3c2f6c696e6561724772616469656e743e3c2f646566733e3c7465787420783d2233322e352220793d223233312220666f6e742d73697a653d223237222066696c6c3d2223666666222066696c7465723d2275726c282341292220666f6e742d66616d696c793d22506c7573204a616b617274612053616e732c44656a6156752053616e732c4e6f746f20436f6c6f7220456d6f6a692c4170706c6520436f6c6f7220456d6f6a692c73616e732d73657269662220666f6e742d7765696768743d22626f6c64223e",
  "linkReferences": {},
  "deployedLinkReferences": {}
}